:020000040000FA
:020000000528D1
:08000800612803138316FF3089
:100010008500C730870083120313A401A001A30148
:10002000B001A101A201A601C0308B000313831609
:1000300001308C00831203138E018F010030900079
:100040000313831640309F008312031340309F0038
:100050002A30A3005530B00081203420A420071995
:100060005920071D52202C28031026082302031CA8
:10007000031003184E20031C3E200800031026081E
:100080003002031C462003184A2008002030A0003C
:10009000031008001030A000031408000830A0006E
:1000A0000314080000309000C730070520048700C3
:1000B0000800013090002408220603196D20031166
:1000C00008008B130C1866208B1708000C10EE30FC
:1000D0008F0000308E00A40A08000311A4013830FC
:1000E000070503197620031D7C200800C73087050B
:1000F00020088704031508008711071287120311CF
:10010000080041309F0000000000000000000000D7
:1001100000000000000000000000000000000000DF
:1001200000000000000000000000000000001F159B
:100130001F1998281E08A100031083100311A10C99
:1001400003102108A600080049309F0000000000AD
:10015000000000000000000000000000000000009F
:10016000000000000000000000000000000000008F
:10017000000000001F151F19BB281E08A200080060
:00000001FF
